:10000000002000109D040000C5040000C70400008B
:1000100000000000000000000000000000000000E0
:10002000000000000000000000000000C904000003
:100030000000000000000000CB040000250B0000C1
:10004000D1040000D3040000D5040000D704000050
:10005000D9040000DB040000DD040000DF04000020
:10006000E1040000E3040000E5040000E7040000F0
:10007000E9040000CF040000EB040000810500004B
:1000800075100000D5100000F3040000F504000016
:10009000F7040000F9040000CF040000CF040000C2
:1000A000FB040000FD040000FF0400000105000047
:1000B0000305000005050000070500000909000010
:1000C00000B583B0002301935F4B5B6A5B090F228D
:1000D00013400F2B34D89A005C4BD3181B689F46F3
:1000E000002301932CE05A4B019329E0594B0193D3
:1000F00026E0594B019323E0584B019320E0584BE5
:1001000001931DE0574B01931AE0574B019317E001
:10011000564B019314E0564B019311E0554B01935C
:100120000EE0554B01930BE0544B019308E0544B08
:10013000019305E0534B019302E0534B0193C046FA
:10014000414B5B6A5B003E22134002331900019869
:1001500001F08AFA030001933B4B1B6F032213400B
:10016000012B0AD0002B04D0022B1ED0032B20D051
:100170005AE0464B464A1A6056E0334B1B6C03224A
:100180001340012B08D0002B02D0032B49D807E0E5
:100190003E4B3F4A1A6007E03C4B3D4A1A6003E081
:1001A0003A4B00221A60C0463BE0384B019A1A6075
:1001B0003AE0254B1B6C03221340012B18D0002B77
:1001C00002D0032B2FD827E01F4B9A68C0235B0077
:1001D000134003D02D4B2E4A1A6021E01A4B9B6826
:1001E0001F22134001332A4A5A43284B1A6017E052
:1001F000154B9A68C0235B00134003D0234B244A5D
:100200001A600DE0104B9B681F2213400133204AF7
:100210005A431E4B1A6003E01C4B00221A60C04672
:1002200001E0C04600E0C046074B9A6F174B1B68C1
:100230001100180001F018FA03001A00134B1A609D
:10024000C04603B000BDC046008004400C0500005D
:1002500020A1070000350C00E0C81000C05C1500AC
:10026000006A180040771B0080841E00C0912100A6
:10027000009F240040AC2700E032290020402C00E1
:10028000604D2F0000D4300040E13300000000102A
:10029000001BB70082B02B4A8E239B00D3582949FC
:1002A000202293431A008E239B00CA50254B002224
:1002B0001A620023019303E0C046019B01330193BE
:1002C000019BC72BF8D91F4B01221A641D4B012239
:1002D0005A641C4B00225A641A4B01225A64C046CD
:1002E000184B5B6C01221340FAD0164B23229A6004
:1002F000144A8E239B00D3581249802293431A003C
:100300008E239B00CA50C0460E4BDB68012213406F
:10031000FAD00C4B03221A670A4B01225A67094B89
:1003200000225A67074B01225A67C046054B5B6F94
:1003300001221340FAD0034B01229A67C04602B053
:100340007047C04600800440344935480A1A02D03C
:10035000072291438D46334933480A1A06D00722B3
:10036000914381F30988022282F314882F4830498F
:10037000304A00F042F830483049314A00F03DF848
:1003800030483149314A00F038F831483149324A71
:1003900000F033F831483249324A00F02EF8324842
:1003A0003249334A00F029F832483349334A00F0E1
:1003B00024F833483349002200F02AF83248334900
:1003C000002200F025F832483249091A082902DBD8
:1003D0000022026041601F481F49884205D0026820
:1003E000043003B4904703BCF7E700208646EC4690
:1003F00000200021284A9047FEE7884207D0521A81
:1004000005D0037801300B700131013AF9D1704702
:10041000884202D002700130FAE7704700200010D5
:10042000001F0010002000100020001020410000DC
:1004300000000010140000104C0500004C050000E6
:100440007026000020410000000000100000001095
:100450007026000070260000742600007026000040
:10046000702600007026000074260000742600002C
:1004700020410000344100006C0500106C050010A4
:100480001400001068050010680500106C050010CD
:100490006C0500106C060010450900000448054971
:1004A00088438546044880470448054901604BE776
:1004B00000200010070000009502000008ED00E099
:1004C00000000000FEE7FEE7FEE7FEE7FEE7FEE7CE
:1004D000FEE7FEE7FEE7FEE7FEE7FEE7FEE7FEE7F4
:1004E000FEE7FEE7FEE7FEE7FEE7FEE7FEE7FEE7E4
:1004F000FEE7FEE7FEE7FEE7FEE7FEE7FEE7FEE7D4
:0C050000FEE7FEE7FEE7FEE7FEE7C04670
:10050C00E0000000E6000000EC000000F20000003B
:10051C00F8000000FE000000040100000A010000C9
:10052C0010010000160100001C0100002201000057
:10053C00280100002E010000340100003A010000E7
:10054C0082B002006B4607331A706B4607331B7878
:10055C007F2B0AD86B4607331B781A001F231A40CF
:10056C00034B012191400A001A60C04602B070474B
:10057C0000E100E082B0784B00221A608023DB059A
:10058C005A686B4607331A706B4607331B78083B67
:10059C00502B00D9D4E09A00704BD3181B689F469F
:1005AC006F4B00221A606F4B00221A606C4B1B6859
:1005BC00591C6B4A11606C4AD35CDAB28023DB05A0
:1005CC009A608023DB0528229A61C1E0654B0022EA
:1005DC001A60634B1B68591C614A1160624AD35CF8
:1005EC00DAB28023DB059A608023DB0528229A612E
:1005FC00AEE05E4B1B68012B07D18023DB0510227C
:10060C001A605B4B07221A600AE0554B1B68591C99
:10061C00534A1160544AD35CDAB28023DB059A60EA
:10062C008023DB0508229A6192E04D4B1A684F4BF0
:10063C001B689A420BD24A4B1B68591C484A1160E2
:10064C00494AD35CDAB28023DB059A600FE0494B50
:10065C001B68002B04D08023DB0520221A6006E0E7
:10066C008023DB0510221A60414B0C221A60802378
:10067C00DB0508229A616BE08023DB0510221A60EF
:10068C003B4B09221A608023DB0508229A615FE04C
:10069C00344B1B685A1C374B1B689A4204D280237C
:1006AC00DB0504221A6003E08023DB0504229A6137
:1006BC008023DB0508229A614AE08023DB059868D9
:1006CC00284B1B68591C274A1160C1B22A4AD154C5
:1006DC00244B1B685A1C274B1B689A4204D280235C
:1006EC00DB0504221A6003E08023DB0504229A61F7
:1006FC008023DB0508229A612AE08023DB059868B9
:10070C00184B1B68591C174A1160C1B21A4AD154B4
:10071C00174B0C221A608023DB0510221A608023F1
:10072C00DB0508229A6113E08023DB0510221A6096
:10073C000F4B08221A608023DB0508229A6107E020
:10074C000B4B0A221A608023DB0508229A61C046F3
:10075C00C04602B07047C046180000107426000056
:10076C0028010010240100101C00001020010010B2
:10077C00140000101C0100109C00001010B52E4B32
:10078C005A682D4B02210A435A602B4A8023D358B6
:10079C0029492022134380228B50274A8023D25888
:1007AC0080235B021340012B11D0234A8023D358A2
:1007BC00214980225202134380228B50C0461E4A8C
:1007CC008023D25880235B021340012BF7D01B4BA4
:1007DC001A6B1A4B3F218A431A63184B1A6B174B2F
:1007EC0001210A431A63154B5A6B144B3F218A4360
:1007FC005A63124B5A6B114B01210A435A638023E3
:10080C00DB059A698023DB0564210A439A61802306
:10081C00DB05F0225A618023DB05F0221A610F20E0
:10082C00FFF78EFE8023DB051A688023DB05402151
:10083C000A431A60C04610BD0080044000400440CA
:10084C008023DB0510221A608023DB0508229A61C5
:10085C00C0468023DB051B6810221340F9D101230D
:10086C0018007047134B00221A60134B00221A60B9
:10087C008023DB0520221A60104B06221A600DE043
:10088C000F4B1B680F4A934203D90C4B0B221A6077
:10089C0008E00B4B1B685A1C094B1A60074B1B6872
:1008AC00062BEDD08023DB0520229A61034B1B68BD
:1008BC0018007047240100102801001014000010CB
:1008CC0018000010FEFFFF0082B002006B460733D9
:1008DC001A706B4607331B787F2B0AD86B4607338D
:1008EC001B781A001F231A40034B012191400A0068
:1008FC001A60C04602B0704700E100E0A023DB059F
:10090C000A4A9B58082213400ED0A023DB05084A44
:10091C009A58A023DB0508210A4305495A50054B78
:10092C001B685A1C034B1A60C046704718800000A5
:10093C001C8000005401001010B500F07BF800F092
:10094C00C9F8FFF71BFFC82000F0D4F800F07CF9C1
:10095C0000F02EF80021002000F06CFB0E4A0F482E
:10096C0001231168526800F03BFB00F0FDF90C4BC1
:10097C001A680C490C4B180000F022FF14210020BF
:10098C0000F058FB094A084801231168526800F02E
:10099C0027FB00F0E9F9EAE704000010B827000093
:1009AC0054010010CC2700002C0100100C0000108A
:1009BC0010B51C4A8023D3581A4940221343802275
:1009CC008B50A023DA0580231B02D358A022D2051A
:1009DC0008218B43190080231B02D150A023DB0577
:1009EC00114A9A58A023DB0508210A430E495A5094
:1009FC00A023DB050D4A9A58A023DB0508218A4366
:100A0C000A495A50A023DB05094A9A58A023DB0552
:100A1C0008210A4306495A501F20FFF755FFC046CC
:100A2C0010BDC04600800440048000000C80000013
:100A3C001080000082B0254B01221A64234B012246
:100A4C005A64224B00225A64204B01225A64C0463D
:100A5C001E4B5B6C01221340FAD01D4B02221A6113
:100A6C001A4B9B680193019B5B0A5B020193174B2A
:100A7C00019A23210A439A60144A8E239B00D3586F
:100A8C001249802293431A008E239B00CA50C04601
:100A9C000E4BDB6801221340FAD00C4B03221A6771
:100AAC000A4B01225A67094B00225A67074B012255
:100ABC005A67C046054B5B6F01221340FAD0034BBB
:100ACC0001229A67C04602B07047C04600800440BD
:100ADC0000C00340054B064A5A60044B044A9A6016
:100AEC00024B07221A60C0467047C04610E000E077
:100AFC0080BB000084B00190064B1B680393C0467A
:100B0C00044B1A68039BD31A019A9A42F8D8C04630
:100B1C0004B0704758010010034B1B685A1C024B61
:100B2C001A60C0467047C04658010010C046704756
:100B3C0000B585B002006B4607331A700F236B4467
:100B4C0000221A7012E00F236B441B78154A002107
:100B5C00D1540F236B441B78134A0021D1540F231B
:100B6C006B441A780F236B4401321A700F236B44B9
:100B7C001B78022BE7D90D4B03221A600C4B002279
:100B8C001A60084B78221A70064B00225A70054BDB
:100B9C006A46073212789A70FFF764FEC04605B0B9
:100BAC0000BDC0461C0000109C000010200100106D
:100BBC001C01001000B585B001900A006B46023391
:100BCC001A8003AB02221A806B4602331B88023355
:100BDC001A001A4B1A601A4B00221A60194B782211
:100BEC001A70184B40225A700E236B4400221A8044
:100BFC0015E00E236B441B88019AD21803AB1B889B
:100C0C001178104AD15403AB1A8803AB01321A8005
:100C1C000E236B441A880E236B4401321A800E2269
:100C2C006A446B46023312881B889A42E1D3FFF761
:100C3C0019FEFFF705FEC04605B000BD20010010EF
:100C4C001C0100101C00001010B5FFF76FFF642092
:100C5C00FFF750FFAE20FFF76BFF2020FFF768FF78
:100C6C001020FFF765FFB020FFF762FFC820FFF7E9
:100C7C005FFF0020FFF75CFF1020FFF759FF4020BB
:100C8C00FFF756FF8120FFF753FFFF20FFF750FFC0
:100C9C00A120FFF74DFFA620FFF74AFFA820FFF782
:100CAC0047FF3F20FFF744FFA420FFF741FFD3206D
:100CBC00FFF73EFF0020FFF73BFFD520FFF738FF83
:100CCC00F020FFF735FFD920FFF732FF2220FFF786
:100CDC002FFFDA20FFF72CFF1220FFF729FFDB2074
:100CEC00FFF726FF2020FFF723FF8D20FFF720FFC3
:100CFC001420FFF71DFFAF20FFF71AFF002000F0B4
:100D0C000FF800F031F8054B00221A80034B00223B
:100D1C005A80024B01225A71C04610BD5C0500106E
:100D2C0084B002006B4607331A70002303930FE064
:100D3C006B4607331B78002B01D1002100E0FF210B
:100D4C00074A039BD3180A1C1A70039B01330393A5
:100D5C00039B044A9342EBD9C04604B07047C0468B
:100D6C005C010010FF03000000B583B06B46073335
:100D7C0000221A701EE06B4607331B78503BDBB227
:100D8C001800FFF7D5FE0020FFF7D2FE1020FFF76A
:100D9C00CFFE6B4607331B78DA010A4BD318802140
:100DAC001800FFF707FF6B4607331A786B460733BB
:100DBC0001321A706B4607331B78072BDBD9C04600
:100DCC0003B000BD5C01001010B582B00400080037
:100DDC0011006B460733221C1A706B460633021C3B
:100DEC001A706B4605330A1C1A706B4607331B7856
:100DFC005BB2002B5EDB6B4606331B783F2B59D85E
:100E0C002E4B1B79002B08D06B4605331B785A42AE
:100E1C005341DAB26B4605331A706B4605331B78B7
:100E2C00012B22D16B4607331A786B4606331B789D
:100E3C00DB08D8B20300DB01D318214AD35C5AB2C9
:100E4C006B4606331B7807210B40012199400B00A0
:100E5C005BB2134359B26B4607331A780300DB01BC
:100E6C00D318C9B2164AD15425E06B4607331A7809
:100E7C006B4606331B78DB08D8B20300DB01D318B2
:100E8C000F4AD35C5BB26A460632127807210A40DD
:100E9C00012191400A0052B2D24352B2134059B2CE
:100EAC006B4607331A780300DB01D318C9B2044A26
:100EBC00D15400E0C04602B010BDC0465C05001025
:100ECC005C01001010B588B0040001A801604260FC
:100EDC0019000F236B44221C1A700E236B440A1C3E
:100EEC001A703E4B1B881A0001AB1B78D3187F2B52
:100EFC0007DC3A4B5B881A0001AB5B78D3183F2BAD
:100F0C0001DD002366E00023079351E001AB5A6832
:100F1C000F236B441B78203B01A949784B431900E4
:100F2C00079BCB185B00D3181B88059300230693F3
:100F3C0035E0059A069B9A4080231B02134014D07F
:100F4C00264B1B88DAB2069BDBB2D318D8B2234BE4
:100F5C005B88DAB2079BDBB2D318D9B20E236B4491
:100F6C001B781A00FFF730FF16E01C4B1B88DAB217
:100F7C00069BDBB2D318D8B2184B5B88DAB2079B4E
:100F8C00DBB2D318D9B20E236B441B785A425341AF
:100F9C00DBB21A00FFF718FF069B0133069301AB77
:100FAC001B781A00069B9342C3D3079B013307930C
:100FBC0001AB5B781A00079B9342A7D3074B1A88A7
:100FCC0001AB1B789BB2D3189AB2044B1A800F2337
:100FDC006B441B78180008B010BDC0465C050010AF
:100FEC0000B585B0039001A8016042601A006B4601
:100FFC0003331A7015E0039B18786B4603331B7888
:10100C0001AA11685268FFF75DFF03001A00039BE9
:10101C001B789A4202D0039B1B7808E0039B013398
:10102C000393039B1B78002BE5D1039B1B781800C3
:10103C0005B000BD82B002006B4607331A706B46D8
:10104C0006330A1C1A706B4607331B789AB2054B91
:10105C001A806B4606331B789AB2024B5A80C046F4
:10106C0002B070475C050010144B1B680122134042
:10107C000AD0124B01221A60114A124BD358104954
:10108C00402253400F4A8B500C4B1B6802221340DA
:10109C0002D00A4B02221A60084B1B680422134030
:1010AC0002D0064B04221A60044B1B680822134022
:1010BC0002D0024B08221A60C046704700C00040A4
:1010CC0000000250FC3F0000144B1B68012213402F
:1010DC0002D0124B01221A60104B1B6802221340E3
:1010EC0002D00E4B02221A600C4B1B6804221340D8
:1010FC0002D00A4B04221A60084B1B6808221340CA
:10110C0002D0064B08221A60044B1B6810221340B5
:10111C0002D0024B10221A60C046704700000140FA
:10112C0000487047600500100122D20703004B40B5
:10113C003DD430B4431A01D2C01AC9184B00440034
:10114C00240EFF2C29D0244224D01B0E20D0E31ACD
:10115C00182B1DDC09021143C40D000210435D4223
:10116C0019350A00AA40D209D940451801D36D0897
:10117C000234013CE405280A0121C9072D062A4343
:10118C008A4160414100090EFF2901D3C00DC00501
:10119C0030BC7047C00FC007FAE742001823DA4191
:1011AC00FF2AF5D07F2000010C300005F0E7A446A3
:1011BC005140431A02D25340C01AC9184B000902BD
:1011CC0011431B0E4400240EFF2C3DD01B4244D077
:1011DC005B421B19012B0CD31ED1C30D4002401ACC
:1011EC000CD3DB050100400AC90591415841644606
:1011FC007047C30D40024900401AF8D0002101315C
:10120C004000FCD38C4204D95B1ADB05400AC018A1
:10121C00EDE7180AC007EAE7192BE8D801330C00F0
:10122C00D940DC414C40012C4941C30D0002104314
:10123C00441A01D4A4006408013BDB05200A2406EF
:10124C009441584164467047FF2B01D04102CED0E7
:10125C007F2000010C300005C9E72442C7D10020D3
:10126C00C5E7C0460122D2075140014B1847000088
:10127C003911000030B405004D400124E40725402D
:10128C0042004B00120E32D01B0E3CD0FF2A33D042
:10129C00FF2B3FD0D21800022043000A0902214341
:1012AC00090AC4B24C43000AC3B24B43000A484378
:1012BC00210A5B18190A091801D44900013A080AD5
:1012CC007F3A2ADBFE2A0FD2D2051C43240601D01A
:1012DC0001242143C9B280295041802901D1400801
:1012EC004000284330BC7047FF20C005F9E71B0EB7
:1012FC00FF2B0AD02800F5E7400206D1FF2BF3D1D3
:10130C00490202D1F0E7FF2AF4D17F2000010C3012
:10131C000005E7E74902F8D1E6E743020132E9D1DB
:10132C005B120233E6D9D805E4E7C04630B40500B9
:10133C004D400124E407254042004B00120E26D0FC
:10134C001B0E34D0FF2A2DD0FF2B35D0D21A000221
:10135C0020430902214343084908A00D5B1A02D21D
:10136C00013A5B005B185B008B4200D35B1A404177
:10137C00F9D37F3222DDFF2A06D2D205C91A8B425D
:10138C005041284330BC7047FF20C005F9E71B0EC5
:10139C0003D0FF2B12D1490210D07F2000010C305A
:1013AC000005EFE74002F8D1FF2BEDD1F5E7FF2A5E
:1013BC00EAD14002F1D1E7E74902EED12800E1E79A
:1013CC00012212064300DA4211D84B00DA420ED841
:1013DC0002000A43520008D003D2814280410130FE
:1013EC0070478842804101307047012070470020CF
:1013FC007047C04602000A43520008D0884204D10C
:10140C00400001210906C84201D900207047012083
:10141C007047C046012212064300DA4211D84B0035
:10142C00DA420ED802000A43520008D003D2884296
:10143C00804101307047814280410130704701206A
:10144C00704700207047C046012212064300DA4262
:10145C000FD84B00DA420CD802000A43520008D0D5
:10146C0003D28142804140427047884280414042D1
:10147C00704700207047C046012212064300DA4232
:10148C000FD84B00DA420CD802000A43520008D0A5
:10149C0003D28842804140427047814280414042A1
:1014AC00704700207047C04641000ED2090E7F39AC
:1014BC000BD449421F3105D400020122D20710433C
:1014CC00C840704701204042704700207047C0461A
:1014DC009D2201000AD002D4013A4900FCD5D20564
:1014EC00080A0906494100D3012950417047C046FA
:1014FC004B1801225205DA4217D25B0D0722D2019A
:10150C009B1A0FD9FF2B13D2DB05CA0FD20713433B
:10151C000903020D1143490AC200524100D901319D
:10152C00C8187047C80FC007704706D1004204D1D5
:10153C00C80F0002FF30C00570470123DB070A000B
:10154C00C900400F084398431A4010435B0A1843E4
:10155C007047C046400000BAFF2801D000207047F9
:10156C000120704741000020FF22120601329142F7
:10157C0040417047C00FC0077047C046400040084C
:10158C007047C04642001FD0120EFF2A1DD07F3A72
:10159C0012DB172A18DA0123DB05013BD34000428A
:1015AC0008D50100194005D098430121C905D14047
:1015BC004018704798437047004204D5BF20000282
:1015CC00803000047047002070474102FCD07F201F
:1015DC0000010C30000570474200120E0AD0FF29A2
:1015EC000BD07E3A0A60FF22D20590437E22D205B0
:1015FC00104370470A60C00FC00770474200120EBC
:10160C0006D0521804DDFF2A05D2C90540187047D0
:10161C00C00FC0077047C00F0002FF30C0057047F5
:10162C00CA1751408B1A17D0C1174A4004B448400E
:10163C00411A48081A0000E052008242FCD90020EE
:10164C0000E05208914200D3891A40419A42F8D1E5
:10165C0004BC5040801A7047002070470A000FD01D
:10166C000300400800E052008242FCD9002000E058
:10167C005208934200D39B1A40418A42F8D17047DA
:10168C00002070470A0010D00300400800E0520010
:10169C008242FCD9002000E05208934200D39B1AEE
:1016AC0040418A42F8D11900704700207047CA1790
:1016BC0051408B1A19D0C11706B44840411A48083A
:1016CC001A0000E052008242FCD9002000E05208CF
:1016DC00914200D3891A40419A42F8D10CBC534034
:1016EC005840C01A5140891A7047002070470000BA
:1016FC00F8B5041E07DB0027002819DDFE20800545
:10170C000D4D012606E044420127F7E7641004352D
:10171C00002C05DD2642F9D02968FFF7ABFDF5E773
:10172C00002F04D0011CFE208005FFF7FFFDF8BD43
:10173C00FE208005FBE7C046BC3C000070B50400F1
:10174C000800A568002D0AD022686168531C5B1A3A
:10175C005E1EB3415B4218408A4209D2A854E3682A
:10176C00002B05D0226861688A4201D2210098477B
:10177C0023680133236070BD70B516004C1E06D46F
:10178C00C5B229003000FFF7D9FF013CF9D270BD7A
:10179C0010B5C30606D48005C0171023184020309E
:1017AC00FFF7EAFF10BDC317C01858407047000080
:1017BC0000B5FFF7B5FC014BC01800BD08000000D8
:1017CC000EB400B586B007AA02CA05920390002396
:1017DC000493044B029301A800F022F806B008BC55
:1017EC0003B01847FFFFFF7F0378002B0CD00029B4
:1017FC000CD04118030001331A78002A02D08B4216
:10180C00F9D10B00181A70470300FBE70300F9E746
:10181C00411C02780130002AFBD1401A70470000AD
:10182C00F0B5DE4657464E464546E0B58DB00390C2
:10183C008B4607920023036056465B465C1C197866
:10184C00002901D100F039FE252904D00398FFF7B7
:10185C0075FFA346F1E722000025CA4F80239B00A9
:10186C009B46F13BFF3B9A461033994680235B0124
:10187C00984640239C4601E063461D43110001320B
:10188C0004920C782300203BD8B23E2815D8830054
:10189C00FB589F4680231D43F0E780231B021D430A
:1018AC00ECE743461D43E9E74B461D43E6E7534649
:1018BC001D43E3E75B461D43E0E72A2C27D1079B3A
:1018CC001A1D0792186800283ADB8B1C9846049B5B
:1018DC001C78C343DB1702001A4091460023049383
:1018EC002E2C31D0742C5DD07A2C5BD06C2C64D027
:1018FC004C2C6AD0C346682C59D143461C78682CB2
:10190C0076D0012343449B4604231D434FE0002023
:10191C002300303B092B10D803009800C01840005E
:10192C002300303B1B18511C14780A00200030385F
:10193C000928F2D988461800CBE7049B9846C8E7DB
:10194C00404210231D43C0E743461C782A2C10D17B
:10195C00079B1A1D07921B68049343465C7802236D
:10196C009C46E044049B002BBCDB80235B001D43A6
:10197C00B8E701239C46E04443462200303A092A4A
:10198C00F3D804998A005218520021003039891872
:10199C005A1C1C781300200030380928F2D99046C4
:1019AC000491DFE7012343449B4643461C78782C83
:1019BC0026D8A300744AD3589F46012343449B4620
:1019CC0043461C7801231D43F1E701231D436F4B54
:1019DC001F68002F01D100F06DFD07AB0193049B34
:1019EC0000934B462A0003992000B847C34624E7CE
:1019FC0008231D43063B43449B4643465C78D6E78D
:101A0C00D846E4E725210398FFF798FE15E7079BD6
:101A1C001A1D07921C7801235B424B449846039F86
:101A2C003A0019002800FFF7B3FE21003800FFF739
:101A3C0085FE3CE02B0709D5039B1B680493079B91
:101A4C001A1D07921B68049A1A70F6E6079B1A1D5A
:101A5C0007921B68039A126804921A60EDE6079BC2
:101A6C001A1D07921F682B00002F29D0484D1D40CE
:101A7C00DB0527D504993800FFF7B6FE82464B46A6
:101A8C0052469B1A9846039A19002800FFF780FECD
:101A9C0053465E1E002B0AD03C0057442178039815
:101AAC00FFF74CFE0134A742F8D101267642EB0633
:101ABC0000D4C2E6039A41462020FFF75DFEBCE647
:101ACC00344FD3E73800FFF7A3FE8246D7E7079BD6
:101ADC001A1D07921B6880262E4072425641764290
:101AEC00222296432336DE321543F83A04921C1E0A
:101AFC0001D100F0B0FC01238020800128400F228E
:101B0C0094460F2104AA9046414400F05FFC8023C8
:101B1C009B011D4300262B0609D52600783E7342F7
:101B2C005E41734220261E401B4B9C466644EB05CF
:101B3C0001D5174B1D406B043AD5079B1A1D079214
:101B4C001B686A072AD51BB2002B2BDA5B422D26A9
:101B5C0036E080262E4073425E4176422F239E4310
:101B6C003036EB05E7D50A4B1D40E4E70026EB05C4
:101B7C00E1D5074B1D40DEE78023DB011D4300262A
:101B8C00D9E7C046D43C0000D03D000064050010ED
:101B9C00FFFDFFFF74400000583000002A07D3D52A
:101BAC00FF221340AA0620D46A0609D5202607E096
:101BBC00079B1A1D07921B686A0711D51B041B0C87
:101BCC00EA0500D4D0E3CE4A154020005838C2B202
:101BDC00202A01D900F03CFC9000CA4A12589746C2
:101BEC002A07EDD5FF221340EAE72B26E8E78023EE
:101BFC009B011D438023DB001D43079B07330722FA
:101C0C0093431A000832079218685968FFF770FC62
:101C1C00041CEB051AD5049B002B19D1C0273F01DE
:101C2C002F40B94B9C4667447B427B4104930FE0A9
:101C3C0080239B011D4380231B011D43DDE7802373
:101C4C009B011D43C0231B011D43D6E706230493B0
:101C5C00201CFFF77FFC002800D0C2E0201CFFF7FF
:101C6C0081FC0690002800D0D3E0201CFFF782FCFA
:101C7C00002805D060231D4380231B069C4664442A
:101C8C000BA9201CFFF7A8FC0B9B5800C0180A21BD
:101C9C00FFF7C6FC0B900021201CFFF7ABFB0028C4
:101CAC0000D1C1E0C0273F012F408023DB009F42C1
:101CBC000BD0C0231B019F4200D093E10B9B049AD5
:101CCC00934202DA043300DB8CE10B9B5842FFF7A2
:101CDC000FFD011C201CFFF7CDFA0400002105901C
:101CEC00FFF788FB00283CD10598FFF733FC002850
:101CFC0000D0B1E085490598FFF78CFB002813D084
:101D0C000B9B5C1CA8462500059C05957F49201C57
:101D1C00FFF70CFB041C01357C49FFF77BFB00280B
:101D2C00F3D14546059B0B93FE2189050594201C98
:101D3C00FFF7A2FB002814D00B9A541EA8462500CE
:101D4C00059C05957149201CFFF794FA041C013D74
:101D5C00FE218905FFF790FB0028F2D14546059B33
:101D6C000B930499002905D0674BFB185A42534139
:101D7C00CB1A0493049B5842FFF7BAFCFC2189054B
:101D8C00FFF778FA211CFFF7CFF9041C5F49FFF726
:101D9C0041FB002878D10594049B002B00D18BE0EB
:101DAC0088231B012B4080221201934275D0584B83
:101DBC002B409A46049B5C1D4B461C1B013C01238B
:101DCC009846EB0400D4BCE00B9F03213800FFF7CE
:101DDC006EFC0231042900D902E189004D4B5B589D
:101DEC009F460021201CFFF747FB002809D1AB04BC
:101DFC000DD4494B5F1CAA0600D51F00474B2B4046
:101E0C0032E6AB0401D4464FF8E7464FF6E7464BB3
:101E1C00F0E7AB0403D4454F404B2B4026E6444F30
:101E2C00FAE70B9B01330B930B9B581CFFF760FCE1
:101E3C00011C201CFFF708FB0028F2D102E00B9BD1
:101E4C00013B0B930B98FFF753FC011C201CFFF775
:101E5C0013FB0028F3D125E700210598FFF70CFBB5
:101E6C00002809D1AB040DD42B4B5F1CAA0600D55E
:101E7C001F002A4B2B40F7E5AB0401D4284FF8E7A1
:101E8C00284FF6E7284BF0E70B9B01330B931F49C8
:101E9C00201CFFF74BFA05907EE7049B092B01DD14
:101EAC00092304930498FFF723FC0599FFF7E2F943
:101EBC00FFF7FAFA041E0CD1154B2B409A464C46F0
:101ECC00053C80272F40049700D178E7069B0493AC
:101EDC0074E70A21FFF7D6FB002900D067E7049FBF
:101EEC00013F0A212000FFF7B9FB0400002FE3D0CB
:101EFC000A21FFF7C7FB0029F2D0049757E7C04629
:101F0C00FFFDFFFFB43F000000F4FFFF0000204185
:101F1C00FFF7FFFF3840000064400000FFFEFFFFAA
:101F2C00544000004C4000005C4000007040000039
:101F3C006C40000001239846049AD343DB171A40E7
:101F4C00049260231D406B1E9D41641B0B98FFF790
:101F5C002AFC632800DD013C059D281CFFF7A4FA30
:101F6C000700FFF7B5FA011C281CFFF77BF9059059
:101F7C00E643F617264084239B0052461A4200D1B2
:101F8C00E9E053469B0600D4F0E053465B06DB17B2
:101F9C00022119402B310398FFF7D0FB5346DB0687
:101FAC0000D4ECE0CA4D4544ED00CA4BED189946FF
:101FBC000024FAE0C8490598FFF75CF905907B1EF0
:101FCC000B93013C02239846B6E7C4490598FFF7EA
:101FDC0051F90590BB1E0B93023C03239846ABE7CB
:101FEC00B046A9E76B052CD50B9B0E2B27DC0133D8
:101FFC00049AD61A092E00DD09262A0601D5049664
:10200C001FE0049A934267D000273000FFF770FB63
:10201C00011C201CFFF72EF9FC218905FFF784F821
:10202C00FFF7B0FAAC4900F09DFA391CFFF7E2F962
:10203C00002853D0013E002EE7D1049601E0069B08
:10204C000493A74B2B409A460B9B049A50421A00C0
:10205C00083A824244DD093B1800FFF749FB012195
:10206C004942FFF7CBFA011C201CFFF75DF80590E5
:10207C00059C0B9B581CFFF73BFB011C201CFFF71E
:10208C00E3F9002802D00B9B01330B930B9800282B
:10209C0043DB092830DC201CFFF706FA0700FFF7AA
:1020AC0017FA011C201CFFF7DDF8059000230B9399
:1020BC0038000021092F36D98A4B01221400013433
:1020CC0008331A00083A56688E422FD8F7D1126896
:1020DC008242F4D9A0462AE00496B2E70496B0E70F
:1020EC00FFF706FB01214942FFF788FA011C201C6F
:1020FC00FFF71AF80590BBE70300093B0B93092384
:10210C00181AFFF7F5FA011C201CFFF7B3F8FFF7BC
:10211C00CBF90700069B0593CAE700230B93002716
:10212C000133984603E00123984600E0A046049A48
:10213C00130043440B998C4663444946CC1A8023C4
:10214C002B4013435A1E9341E41A60231D406B1E0F
:10215C009D41641B0CE7002C00DC12E7013E2021A2
:10216C000398FFF7EBFA002EF8D10AE753465B060B
:10217C0000D413E720210398FFF7E0FA0EE7002EB6
:10218C0000D10FE7013E30210398FFF7D7FA002E5C
:10219C00F8D107E7BA420ED930210398FFF7CEFAEF
:1021AC002B00083B4D4511D01D002A686B68002B95
:1021BC00F2D1A342EED030210131C9B2BF1A002BAB
:1021CC00EBD1A342F8D1BA42F6D9E6E780252D012E
:1021DC0053461D4040D1049B002B4AD153461B064D
:1021EC0000D581E153465B0529D553469904C9179F
:1021FC001F2399436531039C2000FFF79FFA0B9B2B
:10220C00002B00DA99E02B210398FFF797FA0B9833
:10221C00632800DD99E00A210B98FFF701FA010011
:10222C003031C9B2039C2000FFF788FA0A210B98C1
:10223C00FFF73DFA3031C9B22000FFF77FFA002ECC
:10224C0001D1FFF7FAFA013E20210398FFF776FA45
:10225C00002EF8D1FFF7F1FA0B9B002BBBDD013BF5
:10226C000B9330210398FFF769FA0B9B002BF6DCDC
:10227C00B1E72E210398FFF761FA049B1C00092B90
:10228C0000DD0924E343DB171C40049B1B1B984611
:10229C00002D12D00B9BE01AFFF72AFA0599FEF7D6
:1022AC00E9FFFFF701F90500002C39D0084BE718BE
:1022BC00FF00084BFF18002421E02000FFF718FA5C
:1022CC000599FEF7D7FFFFF7EFF80500ECE7C046DE
:1022DC00FFFFFF1F80400000000020410000C842AB
:1022EC00FFFBFFFF90400000AA420ED9302103985B
:1022FC00FFF724FA3B00083B4F4511D01F003A680A
:10230C007B68002BF2D1A342EED030210131C9B24F
:10231C00AD1A002BEBD1A342F8D1AA42F6D9E6E7CD
:10232C004346002B00D15DE74446013C3021039825
:10233C00FFF704FA002CF8D154E72D212000FFF709
:10234C00FDF90B9B5B420B9361E76421FFF768F986
:10235C0001003031C9B20398FFF7F0F964210B98F2
:10236C00FFF7A5F90B9156E7012204922DE4190011
:10237C0001220F2004ACA44660440724A4469846CE
:10238C00002B2BD064462340303383541400C908EF
:10239C0001320B1EF6D1A04620E01C00002398460B
:1023AC00002C06D080231B022B404746A8461D005C
:1023BC003EE00023984611E062462240554FBA5C3D
:1023CC00CA541A0024090133002C06D00028F3D07B
:1023DC0062462240504FBA5CF2E79046049B42465C
:1023EC009C1AE343DB171C404B461F1BBF1AFF2EE6
:1023FC0034D9023FAB0500D47FE0310AC9B203984F
:10240C00FFF79CF9F1B20398FFF798F92AE00A213B
:10241C002000FFF737F9303104AB10229B18D95547
:10242C0001370A212000FFF719F9092C0DD90400F6
:10243C00002DECD003233B40032BE8D104AB10223E
:10244C009B181C32DA550137E1E74546B846C5E71B
:10245C0000239846C2E700239846BFE7002E49D1D7
:10246C00AB054AD5039E320039002800FFF790F9DE
:10247C00320021003020FFF77FF943465E1E0ED458
:10248C0008AE4446013C341900E01C002178039846
:10249C00FFF754F9631EA642F7D101267642EB06EC
:1024AC0001D4FFF7CAF9039A39002020FFF764F929
:1024BC00FFF7C3F9C346FFF7C0F903998B68002BEC
:1024CC0006D00A68496804918A4201D200219954C5
:1024DC00039B18680DB03CBC90469946A246AB468F
:1024EC00F0BD01204042F5E72E210398FFF726F9B5
:1024FC00049CCAE6013FAB0508D4039A39002800B6
:10250C00FFF746F90027FF2E00D976E7002EA9D059
:10251C0078E7C046983C0000A83C000070B5002449
:10252C000E00211C051CFEF765FF00280FD16B0067
:10253C001B0E7F3B0ED4162B0FDC094A281CDA40ED
:10254C002B00934319003360FEF78CFE70BD346092
:10255C00201CFBE73460281CF8E73560201CF5E7ED
:10256C00FFFF7F0070B50C1C84B0051C0021201CE3
:10257C00FEF740FF00284ED1281CFEF7F3FF002881
:10258C0003D02C1C201C04B070BD201CFEF7EAFFED
:10259C000028F7D10021281CFEF72CFF0028F0D1D1
:1025AC00281CFEF7D7FF00283DD1201CFEF7D2FFD8
:1025BC000028E6D1201CFEF7E1FF011C061C281C9C
:1025CC00FEF7B4FE03A9FFF7A9FF0399301CFEF731
:1025DC0051FE011C281CFEF745FE0021041C281C82
:1025EC00FEF732FF002820D0211C301CFEF7E8FE3D
:1025FC00002804D0201C311CFEF734FE041C0021E2
:10260C00201CFEF739FF0028BCD0201C311CFEF723
:10261C008BFD041CB6E7FFF7CBF8104B104C1B6876
:10262C0001930360AEE70E4CACE780231B06F11858
:10263C00201CFEF7C5FE002804D0201C311CFEF720
:10264C0073FD041C0021201CFEF7FEFE002899D00F
:10265C00201C311CFEF706FE041C93E7B83C00005E
:04266C000000C07F2B
:04267000C1000000A5
:10267400AC0500004C0700004C0700004C070000AC
:102684004C0700004C0700004C0700004C070000FA
:10269400D80500004C0700004C0700004C07000060
:1026A4004C0700004C0700004C0700004C070000DA
:1026B400FE0500004C0700004C0700004C0700001A
:1026C4004C0700004C0700004C0700004C070000BA
:1026D400340700004C0700004C0700004C070000C2
:1026E4004C0700004C0700004C0700004C0700009A
:1026F400360600004C0700004C0700004C070000A1
:102704004C0700004C0700004C0700004C07000079
:10271400840600004C0700004C0700004C07000032
:102724004C0700004C0700004C0700004C07000059
:102734004C0700004C0700004C0700004C07000049
:102744004C0700004C0700004C0700004C07000039
:102754009C0600004C0700004C0700004C070000DA
:102764004C0700004C0700004C0700004C07000019
:10277400340700004C0700004C0700004C07000021
:102784004C0700004C0700004C0700004C070000F9
:10279400C60600004C0700004C0700004C07000070
:1027A4004C0700004C0700004C0700004C070000D9
:1027B400060700006C70637131313134202D2073B1
:1027C40073643133303600002564000000000000DB
:1027D40000000000000000000000000000000000F5
:1027E4000010001000100010001000100000001075
:1027F400000000000028002800280000000000005D
:10280400000000000000000000240024007C0024DC
:102814000048007C004800480000000000380054D4
:102824000050003800140054005400380010000018
:102834000020005400580030002800540014000800
:102844000000000000100028002800100034004898
:1028540000480034000000000010001000100000C8
:10286400000000000000000000000000000800104C
:10287400002000200020002000200020001000087C
:1028840000200010000800080008000800080008E4
:102894000010002000100038001000280000000084
:1028A4000000000000000000000000000010001004
:1028B400007C001000100000000000000000000078
:1028C40000000000000000000000001000100010D4
:1028D40000000000000000000000003800000000BC
:1028E40000000000000000000000000000000000E4
:1028F4000000001000000000000800080010001094
:1029040000100010002000200000000000380044E7
:102914000044005400440044004400380000000017
:1029240000100030005000100010001000100010C3
:1029340000000000003800440044000400080010B7
:102944000020007C0000000000380044000400184F
:1029540000040004004400380000000000080018CF
:10296400002800280048007C00080008000000003F
:10297400007C00400040007800040004004400385B
:102984000000000000380044004000780044004487
:102994000044003800000000007C0004000800101F
:1029A4000010002000200020000000000038004437
:1029B4000044003800440044004400380000000093
:1029C4000038004400440044003C00040044003843
:1029D40000000000000000000010000000000000E3
:1029E40000000010000000000000000000000010C3
:1029F40000000000000000100010001000000000A3
:102A0400000C003000400030000C0000000000000A
:102A1400000000000000007C0000007C00000000BA
:102A2400000000000000000000600018000400180E
:102A340000600000000000000038004400040008AA
:102A440000100010000000100000000000380044D6
:102A5400004C0054005C00400040003800000000BE
:102A640000100028002800280028007C00440044AE
:102A74000000000000780044004400780044004452
:102A8400004400780000000000380044004000408A
:102A9400004000400044003800000000007000487E
:102AA400004400440044004400480070000000005A
:102AB400007C00400040007C004000400040007C5E
:102AC40000000000007C004000400078004000400E
:102AD4000040004000000000003800440040004076
:102AE400005C00440044003800000000004400443E
:102AF4000044007C00440044004400440000000002
:102B040000380010001000100010001000100038F1
:102B14000000000000040004000400040004000499
:102B240000440038000000000044004800500060E9
:102B340000500048004800440000000000400040ED
:102B440000400040004000400040007C00000000C5
:102B54000044006C006C00540044004400440044F1
:102B64000000000000440064006400540054004C61
:102B7400004C0044000000000038004400440044BD
:102B84000044004400440038000000000078004481
:102B94000044004400780040004000400000000071
:102BA4000038004400440044004400440054003809
:102BB4000004000000780044004400440078004809
:102BC4000048004400000000003800440040003089
:102BD400000800040044003800000000007C0010DD
:102BE4000010001000100010001000100000000081
:102BF40000440044004400440044004400440038BD
:102C0400000000000044004400440028002800287C
:102C14000010001000000000004400440054005460
:102C24000054006C00280028000000000044002824
:102C340000280010001000280028004400000000B4
:102C44000044004400280028001000100010001068
:102C540000000000007C00040008001000100020A8
:102C64000040007C0000000000180010001000105C
:102C740000100010001000100010001800200020A8
:102C840000100010001000100008000800000000F0
:102C94000030001000100010001000100010001090
:102CA400001000300010002800280044000000003C
:102CB4000000000000000000000000000000000010
:102CC4000000000000000000000000FE00200010D2
:102CD40000000000000000000000000000000000F0
:102CE4000000000000380044003C0044004C003464
:102CF400000000000040004000580064004400440C
:102D04000064005800000000000000000038004487
:102D140000400040004400380000000000040004AB
:102D24000034004C00440044004C00340000000017
:102D34000000000000380044007C004000440038DB
:102D440000000000000C0010007C001000100010B7
:102D54000010001000000000000000000034004CCF
:102D640000440044004C003400040078004000405B
:102D74000058006400440044004400440000000083
:102D8400001000000070001000100010001000106F
:102D9400000000000010000000700010001000107F
:102DA40000100010001000E00040004000480050F7
:102DB4000060005000480044000000000070001053
:102DC400001000100010001000100010000000009F
:102DD40000000000007800540054005400540054D3
:102DE400000000000000000000580064004400449B
:102DF40000440044000000000000000000380044CB
:102E040000440044004400380000000000000000BA
:102E1400005800640044004400640058004000402E
:102E2400000000000034004C00440044004C003416
:102E3400000400040000000000580064004000404A
:102E44000040004000000000000000000038004482
:102E5400003000080044003800000000002000207A
:102E6400007800200020002000200018000000004E
:102E7400000000000044004400440044004C0034BE
:102E84000000000000000000004400440028002866
:102E9400002800100000000000000000005400544E
:102EA4000054006C0028002800000000000000000E
:102EB4000044002800100010002800440000000016
:102EC4000000000000440044002800280010001006
:102ED4000010006000000000007C000800100020CA
:102EE4000040007C000000000018001000100010DA
:102EF4000020002000100010001000180010001026
:102F0400001000100010001000100010001000103D
:102F1400003000100010001000080008001000101D
:102F2400001000300000000000000074004C00009D
:102F3400000000000000000000000000000000008D
:102F4400000000000000000000000000000000007D
:102F54000000000000000000000000000000000C61
:102F6400000C000C000C000C000C000C000C000CFD
:102F7400000C000C0000000C000C0000000000001D
:102F84000000001B001B001B001B001B00000000B6
:102F9400000000000000000000000000000000002D
:102FA4000000000000008019801980198019C07F7A
:102FB400C07F80190033C07FC07F003300330033EB
:102FC40000330000000000000000001E003F807578
:102FD40080650074003C001E0007800580658065E4
:102FE4008075003F001E0004000400000000007013
:102FF40000D840D8C0D880D900730006000C801BCC
:10300400C036C066C046C006800300000000000051
:103014000000001E003F003300330033001E000C8C
:10302400C03CC066806380618063C03E801C000039
:10303400000000000000000C000C000C000C000C50
:10304400000000000000000000000000000000007C
:1030540000000000000000008000000100030006E2
:1030640000060004000C000C000C000C000C000C0A
:103074000004000600060003000180000020001088
:103084000018000C000C00040006000600060006F0
:10309400000600060004000C000C001800100020BC
:1030A4000000000C002D003F001E00330000000053
:1030B400000000000000000000000000000000000C
:1030C40000000000000000000000000C000C000CD8
:1030D400000CC0FFC0FF000C000C000C000C000032
:1030E40000000000000000000000000000000000DC
:1030F40000000000000000000000000000000000CC
:103104000000000C000C0004000400080000000093
:103114000000000000000000000000000000001E8D
:10312400001E00000000000000000000000000007D
:10313400000000000000000000000000000000008B
:1031440000000000000000000000000C000C000063
:103154000000000000000003000300030006000656
:1031640000060006000C000C000C000C00180018EF
:1031740000180000000000000000001E003F0033A3
:10318400806180618061806D806D8061806180611B
:103194000033003F001E0000000000000000000695
:1031A400000E001E0036002600060006000600067B
:1031B40000060006000600060006000000000000ED
:1031C4000000001E003F8073806180618001000365
:1031D4000006000C001800300060807F807F000033
:1031E400000000000000001C003E006300630003B8
:1031F400000E000E00038001800180618073003F97
:10320400001E00000000000000000006000E000E7A
:10321400001E001E0016003600360066807F807F88
:103224000006000600060000000000000000007F09
:10323400007F006000600060006E007F806380019A
:10324400800180618073003F001E000000000000C8
:103254000000001E003F803380610060006E007F2C
:1032640080738061806180618033003F001E0000B4
:10327400000000000000807F807F800100030003C5
:1032840000060006000C000C000C000800180018D2
:1032940000180000000000000000001E003F8063D2
:1032A400806180610021001E003F80618061806137
:1032B4008061003F001E0000000000000000001EAE
:1032C400003F00738061806180618073803F801D56
:1032D400800180610073003F001E000000000000B8
:1032E40000000000000000000000000C000C0000C2
:1032F40000000000000000000000000C000C0000B2
:1033040000000000000000000000000000000000B9
:10331400000C000C00000000000000000000000C85
:10332400000C00040004000800000000000000007D
:1033340080008003000E003800600038000E800317
:1033440080000000000000000000000000000000F9
:10335400000000000000807F807F00000000807F6C
:10336400807F00000000000000000000000000005A
:10337400000000000000000000400070001C000776
:1033840080010007001C00700040000000000000E5
:10339400000000000000001F803FC071C060C0003A
:1033A400C00180030007000E000C000C0000000C9C
:1033B400000C0000000000000000001E003F8031EF
:1033C40080718063806F806D806D806F8067006026
:1033D4000032003E001C0000000000000000000E4F
:1033E400000E001B001B001B001B80318031803F3E
:1033F400803F8031C060C060C060000000000000F9
:103404000000007C007E0063006300630063007EB4
:10341400007E0063806180618063007F007E000025
:10342400000000000000001E003F80318061006049
:103434000060006000600060006080618031003FD7
:10344400001E0000000000000000007C007F0063FC
:1034540080638061806180618061806180610063DC
:103464000063007E007C0000000000000000807FFC
:10347400807F0060006000600060007F007F00606B
:10348400006000600060807F807F0000000000001A
:103494000000807F807F0060006000600060007F2B
:1034A400007F006000600060006000600060000059
:1034B400000000000000001E003F803180610060B9
:1034C4000060006080638063806180618031803F40
:1034D400001E000000000000000080618061806127
:1034E400806180618061807F807F80618061806194
:1034F4008061806180610000000000000000003FE6
:10350400003F000C000C000C000C000C000C000C24
:10351400000C000C000C003F003F00000000000005
:103524000000800180018001800180018001800110
:1035340080018001806180618073003F001E000073
:10354400000000000000C060806100630066006647
:10355400006C0078007C0066006600638061806116
:10356400C060000000000000000000600060006017
:103574000060006000600060006000600060006047
:103584000060807F807F0000000000000000C071A8
:10359400C071C07BC07AC06AC06AC06EC064C060BB
:1035A400C060C060C060C060C06000000000000077
:1035B400000080718071807980798079806D806D60
:1035C400806D8065806780678067806380630000AA
:1035D400000000000000001E003F00338061806195
:1035E4008061806180618061806180610033003F1F
:1035F400001E0000000000000000007E007F8063C9
:103604008061806180618063007F007E0060006073
:103614000060006000600000000000000000001E68
:10362400003F0033806180618061806180618061DE
:10363400806580670033803F401E0000000000006A
:103644000000007E007F8063806180618063007F72
:10365400007E00660063006380618061C0600000DA
:10366400000000000000000E001F80318031003097
:103674000038001E00078003806180618031003FB4
:10368400001E0000000000000000C0FFC0FF000C8E
:10369400000C000C000C000C000C000C000C000CC6
:1036A400000C000C000C0000000000000000806111
:1036B40080618061806180618061806180618061FE
:1036C400806180618073003F001E000000000000E4
:1036D4000000C060C060C060803180318031001B58
:1036E400001B001B001B000E000E000E0004000057
:1036F400000000000000C0C0C0C0C0C0C0C0C0C046
:10370400C0CC804C804C805E80528052807380613B
:1037140080610000000000000000C0C08060806183
:103724000033003B001E000C000C001E001F003B79
:1037340080718061C0C00000000000000000C0C0B3
:103744008061806100330033001E001E000C000CF9
:10375400000C000C000C000C000C00000000000029
:103764000000803F803F8001000300030006000C3E
:10377400000C0018001800300060807F807F00007B
:1037840000000000000F000F000C000C000C000CE7
:10379400000C000C000C000C000C000C000C000CC5
:1037A400000C000C000F000F000000180018001897
:1037B400000C000C000C000C0006000600060006BD
:1037C400000300030003000000000000001E001EB0
:1037D40000060006000600060006000600060006B5
:1037E400000600060006000600060006001E001E75
:1037F4000000000C000C001E001200330033806136
:1038040080610000000000000000000000000000D3
:1038140000000000000000000000000000000000A4
:103824000000000000000000000000000000000094
:1038340000000000E0FF0000000000380018000C49
:103844000000000000000000000000000000000074
:103854000000000000000000000000000000000064
:10386400000000000000001F803F80618001801F75
:10387400803F80618063807FC038000000000000CA
:1038840000000060006000600060006E007F8073D4
:1038940080618061806180618073007F006E0000C0
:1038A4000000000000000000000000000000001EF6
:1038B400003F807380610060006080618073003F1E
:1038C400001E000000000000000080018001800153
:1038D4008001801D803F8073806180618061806190
:1038E4008073803F801D0000000000000000000085
:1038F400000000000000001E003F00738061807F14
:10390400807F00608071003F001E00000000000006
:103914000000C007C00F000C000C807F807F000CEB
:10392400000C000C000C000C000C000C000C00003F
:10393400000000000000000000000000801D803F27
:10394400807380618061806180618073803F801DAD
:1039540080018063007F003E000000600060006022
:103964000060006F807F8071806180618061806110
:10397400806180618061000000000000000000069A
:10398400000600000000003E003E0006000600069F
:103994000006000600060006000600000000000005
:1039A4000006000600000000003E003E000600067F
:1039B4000006000600060006000600060006004693
:1039C400007E003C000000600060006000608061D8
:1039D40000630066006C007C007600630063806115
:1039E400C0600000000000000000003E003E000631
:1039F4000006000600060006000600060006000693
:103A040000060006000600000000000000000000A0
:103A140000000000000080DDC0FFC0CEC0CCC0CCE0
:103A2400C0CCC0CCC0CCC0CCC0CC000000000000D6
:103A340000000000000000000000006F807F807123
:103A4400806180618061806180618061806100004B
:103A54000000000000000000000000000000001E44
:103A6400003F807380618061806180618073003F6A
:103A7400001E000000000000000000000000000024
:103A8400006E007F807380618061806180618073DB
:103A9400007F006E006000600060006000000000B5
:103AA40000000000801D803F807380618061806120
:103AB40080618073803F801D8001800180018001CE
:103AC400000000000000000000000067803F003993
:103AD4000030003000300030003000300030000092
:103AE4000000000000000000000000000000001EB4
:103AF400803F80610060007F803F80018061007FA3
:103B0400001E000000000000000000000008001873
:103B14000018007F007F0018001800180018001813
:103B24000018801F800F000000000000000000004B
:103B3400000000000000806180618061806180611C
:103B4400806180618063807F803D00000000000010
:103B540000000000000000000000C06080318031DF
:103B64008031001B001B001B000E000E000600002D
:103B7400000000000000000000000000000080DDE4
:103B840080DD80DD00550055005500770077002268
:103B940000220000000000000000000000000000FF
:103BA4000000806100330033001E000C000C001E76
:103BB40000330033806100000000000000000000BA
:103BC4000000000080618061803100330033001BFD
:103BD400001B001B000E000E000E001C007C007079
:103BE40000000000000000000000C07FC07F8001D2
:103BF40000030006000C00180030C07FC07F0000E6
:103C0400000000008003800700060006000600068E
:103C14000006000E001C001C000E00060006000634
:103C24000006000680078003000600060006000662
:103C34000006000600060006000600060006000650
:103C44000006000600060006000600060038003CD8
:103C5400000C000C000C000C000C000E0007000708
:103C6400000E000C000C000C000C000C003C003892
:103C74000000000000000000000000000000803888
:103C8400807F0047000000000000000000000000EA
:103C94000000000030313233343536373839616250
:103CA40063646566303132333435363738394142EE
:103CB4004344454621000000000020410000C84262
:103CC40000401C4620BCBE4CCA1B0E5AAEC59D7497
:103CD40084180000C6180000C6180000A0180000D0
:103CE400C6180000C6180000C6180000A618000078
:103CF400C6180000C6180000C6180000B41800005A
:103D0400C6180000BA180000C6180000C618000043
:103D1400C0180000C6180000C6180000C61800002D
:103D2400C6180000C6180000C6180000C618000017
:103D3400C6180000C6180000C6180000C618000007
:103D4400C6180000C6180000C6180000C6180000F7
:103D5400C6180000C6180000C6180000C6180000E7
:103D6400C6180000C6180000C6180000C6180000D7
:103D7400C6180000C6180000C6180000C6180000C7
:103D8400C6180000C6180000C6180000C6180000B7
:103D9400C6180000C6180000C6180000C6180000A7
:103DA400C6180000C6180000C6180000C618000097
:103DB400C6180000C6180000C6180000C618000087
:103DC400C6180000C6180000AE180000EE2400005B
:103DD4000C1A00000C1A00000C1A00000C1A000047
:103DE4000C1A00000C1A00000C1A00000C1A000037
:103DF4000C1A00000C1A00000C1A00000C1A000027
:103E04000C1A00000C1A00000C1A00000C1A000016
:103E14000C1A00000C1A00000C1A00000C1A000006
:103E24000C1A00000C1A00000C1A00000C1A0000F6
:103E34000C1A00000C1A00000C1A00000C1A0000E6
:103E44000C1A00000C1A00000C1A00000C1A0000D6
:103E54000C1A00000C1A00000C1A00000C1A0000C6
:103E6400101A00000C1A00000C1A00000C1A0000B2
:103E74000C1A00000C1A00000C1A00000C1A0000A6
:103E84000C1A00000C1A00000C1A00000C1A000096
:103E94000C1A00000C1A00000C1A00000C1A000086
:103EA4000C1A00000C1A00000C1A00000C1A000076
:103EB4000C1A00000C1A00000C1A00000C1A000066
:103EC4000C1A00000C1A00000C1A00000C1A000056
:103ED4000C1A00000C1A00000C1A00000C1A000046
:103EE400FA1B00003C1C00004A1C00000C1A0000D5
:103EF4000C1A00000C1A00000C1A00000C1A000026
:103F04000C1A00000C1A00000C1A00000C1A000015
:103F14000C1A00000C1A00000C1A00000C1A000005
:103F24000C1A00000C1A00000C1A00001A1B0000E6
:103F34000C1A00000C1A00000C1A00000C1A0000E5
:103F44000C1A00000C1A00000C1A00000C1A0000D5
:103F54000C1A00000C1A00001A1A0000841B00003E
:103F6400001C0000421C0000501C00000C1A000041
:103F7400841B00000C1A00000C1A00000C1A00002C
:103F84000C1A0000401A00005E1B0000DA1A000040
:103F94000C1A00000C1A00006A1A00000C1A000027
:103FA400781B00000C1A00000C1A0000201B0000F3
:103FB400FA1A00005C2400005C2400005C24000069
:103FC4005C2400005C2400005C2400005C240000ED
:103FD4005C2400005C2400005C2400005C240000DD
:103FE400A62300005C2400005C2400005C24000084
:103FF4005C240000A62300005C2400005C24000074
:104004005C2400005C2400005C2400007A2300008F
:10401400FA1A00005C2400005C2400005C24000008
:104024005C240000A62300005C2400005C24000043
:10403400FA1A0000C01F0000D61F0000401F000035
:10404400C01F0000D61F00002D494E46000000008E
:104054002D696E66000000002B494E4600000000EA
:104064002B696E66000000004E414E006E616E00CA
:10407400286E756C6C29000000000000010000002F
:10408400000000000A0000000000000064000000BE
:1040940000000000E80300000000000010270000FA
:1040A40000000000A08601000000000040420F0054
:1040B40000000000809698000000000000E1F50573
:1040C4000000000000CA9A3B0000000000E40B540A
:1040D4000200000000E87648170000000010A5D494
:1040E400E800000000A0724E1809000000407A1099
:1040F400F35A00000080C6A47E8D03000000C16F47
:10410400F286230000008A5D78456301000064A7FD
:0C411400B3B6E00D0000E8890423C78A60
:10412000006CDC02070A0000D02700000B12000020
:044130003C2F000020
:040000030000049D58
:00000001FF
